:020000040800F2
:100000000000052499250008ED250008ED250008CD
:10001000ED250008ED250008ED2500080000000092
:10002000000000000000000000000000ED250008B6
:10003000ED25000800000000ED250008ED25000872
:10004000ED250008ED250008ED250008ED25000848
:10005000ED250008ED250008ED250008ED25000838
:10006000ED250008ED250008ED250008ED25000828
:10007000ED250008ED250008ED250008ED25000818
:10008000ED250008ED250008ED250008ED25000808
:10009000ED250008ED250008ED250008ED250008F8
:1000A000ED250008ED250008ED250008ED250008E8
:1000B000ED250008ED250008ED250008ED250008D8
:1000C000ED250008ED250008ED250008ED250008C8
:1000D000ED250008ED250008ED250008ED250008B8
:1000E000ED250008ED25000800000000ED250008C2
:1000F000ED250008ED250008ED250008ED25000898
:10010000ED250008ED250008ED250008ED25000887
:10011000ED250008ED250008ED250008ED25000877
:10012000ED250008ED250008ED250008ED25000867
:10013000ED250008ED250008ED250008ED25000857
:1001400000000000000000000000000000000000AF
:10015000ED250008ED250008ED250008ED25000837
:10016000ED250008ED250008ED250008ED25000827
:10017000ED250008ED250008ED2500080000000031
:10018000ED250008ED250008ED250008ED25000807
:10019000ED250008ED250008ED250008ED250008F7
:1001A000ED250008ED250008ED2500080000000001
:1001B000ED250008ED250008ED250008ED250008D7
:1001C000ED250008ED2500080000000000000000FB
:1001D0000000000000000000ED2500080000000005
:1001E000000000000000000000000000000000000F
:1001F0000000000000000000ED250008ED250008CB
:10020000ED250008ED25000800000000ED250008A0
:10021000ED250008ED250008ED250008ED25000876
:10022000ED25000800000000ED250008000000009A
:10023000ED250008ED25000800000000ED25000870
:10024000ED250008ED250008ED250008ED25000846
:10025000ED250008ED250008ED250008ED25000836
:10026000ED250008ED250008ED250008ED25000826
:10027000ED250008ED250008ED2500080000000030
:10028000ED250008ED250008ED250008ED25000806
:1002900000000000ED250008ED250008000000002A
:1002A00000000000ED250008ED250008ED25000800
:1002B000ED250008ED250008ED250008ED250008D6
:0C02C000ED250008ED250008ED250008E4
:1002E0000348044B834202D0034B03B118477047C5
:1002F000800800248008002400000000054806490A
:100300000B1AD90F01EBA301491002D0034B03B123
:10031000184770478008002480080024000000006F
:1003200010B5064C237843B9FFF7DAFF044B13B13D
:100330000448AFF300800123237010BD800800241F
:10034000000000007C3A000808B5044B1BB10449CA
:100350000448AFF30080BDE80840CFE7000000008C
:10036000840800247C3A000808B5062000F002FC4E
:10037000012001F0DFFF00BF002301461A461846A6
:1003800000F02CBE38B5084B084D5B1B9C1007D005
:10039000043B1D44013C55F804399847002CF9D121
:1003A000BDE8384003F070BB0C3F0008083F000870
:1003B00070B50D4E0D4D761BB61006D0002455F8C5
:1003C000043B01349847A642F9D1094E094D761BEA
:1003D00003F054FBB61006D0002455F8043B01345A
:1003E0009847A642F9D170BDF83E0008F83E0008D3
:1003F000083F0008F83E0008024B0146186800F06C
:100400000BB800BF00000024024B0146186800F042
:1004100069BE00BF000000242DE9F04F01F10B067A
:10042000162E83B0044624D8102900F2BA8000F0BA
:10043000EFFA102618220220B74F3A44A2F1080121
:1004400053688B4200F0BA805A68D96822F00302E0
:100450001A449D68E9608D60516841F001012046B1
:10046000516003F1080500F0D5FA284603B0BDE855
:10047000F08F36F0070600F19480B14200F29180CF
:1004800000F0C6FAB6F5FC7FC0F09681730A00F062
:100490008F80042B00F26B81B30903F1390003F163
:1004A000380CC3009C4F3B44A3F108055B689D4298
:1004B00006D10CE0002980F22B81DB689D4206D03A
:1004C0005A6822F00302911B0F29F3DD60463D6953
:1004D000DFF848C265457CD06A6822F00302931BAE
:1004E0000F2B00F37781002BC7E904CC80F26881E1
:1004F000B2F5007F80F01681D308796801334FEAA6
:10050000521E012202FA0EF20A4357F833E0C5F8F0
:1005100008E007EBC3010839E9607A6047F8335017
:10052000CEF80C50831001219940914257D81142C6
:1005300006D120F003004900114200F10400FAD076
:1005400007EBC0094D468646D5F80C80454508D1D5
:1005500019E1002B80F22081D8F80C80454500F08D
:100560001281D8F8042022F00302931B0F2BF0DD38
:100570002046D8E9025408EB060146F00106C8F807
:100580000460EC60A56043F00104C7E90411C1E90F
:1005900002CC4C6048F8023000F03CFA08F1080543
:1005A00002E00C2323600025284603B0BDE8F08F4D
:1005B0004FF4007340204FF03F0C73E7D3689A422A
:1005C00008BF02307FF440AF3D69DFF850C1654598
:1005D00082D17A688310012199409142A7D9BD68E0
:1005E0006B6823F00308464503D8A8EB06030F2BDE
:1005F0007EDCDFF82C91D7F80824D9F800300132DE
:10060000334405EB080A00F02F8103F580530F33C4
:1006100023F47F6B2BF00F0B5946204600F0FCF9BA
:10062000411C024600F0EF80824500F2EA80D9F8D2
:1006300004105944C9F804100B4600F04B81D7F858
:10064000081401311BBFA2EB0A0A5344C7F808245F
:10065000C9F8043012F0070300F01281C3F1080159
:100660000A44C3F5805193440831A1EB0B01C1F357
:100670000B0A514620460192009300F0CDF9421C2E
:10068000DDE9003200F04B81831A03EB0A0BD9F845
:100690000400BA604BF001030AEB0001BD42536055
:1006A000C9F8041000F02281B8F10F0F40F2208148
:1006B0006B68A8F10C0020F0070003F0010303436E
:1006C0006B604FF0050C2B180F28C3E901CC00F22A
:1006D0002D8153681546D9F82C208A42D9F830204C
:1006E00038BFC9F82C108A4238BFC9F830108CE0E6
:1006F000AA1943F0010346F001066E602046BA6075
:10070000536000F087F90835284603B0BDE8F08F44
:10071000D9681A449DE600BF300400243804002440
:100720009C080024B2F5206F4FEA522363D3142BA8
:1007300000F2B88003F15C01C9005B3307EB010EE6
:100740007958AEF1080E8E4500F091804B6823F089
:100750000303934202D989688E45F7D1D1F80CE0A2
:100760007A68C5E9021ECEF80850CD60DAE6142B8F
:1007700059D9542B00F29E80330B03F16F0003F123
:100780006E0CC3008EE60EF1010E1EF0030F05F194
:1007900008057FF4D9AE51E0424445465368D8F885
:1007A0000C1043F00103536055F8083F2046D96010
:1007B0008B6000F02FF9F7E6F00806F108023BE63F
:1007C0002A442046536843F001035360083500F083
:1007D00021F9E9E6A919204646F0010643F0010493
:1007E0006E60C7E90411C1E902CC4C60AB5000F067
:1007F00011F90835D8E6930903F13901C9003833F6
:100800009CE7BD4260D0BD686B6823F0030B5E457A
:10081000ABEB060302D80F2B3FF76AAF204600F080
:10082000F9F80025C0E603F15C0003F15B0CC3009E
:1008300038E659F808394B4540F0968010F0030F20
:1008400000F1FF30F5D17B6823EA01037B604900AA
:1008500099423FF6C4AE19B9C1E649000EF1040E43
:100860001942FAD070466BE603F1100BD4E69A10E9
:100870004FF001087B6808FA02F21A437A6070E7C9
:1008800002EB0B014942C1F30B0A5146204601938A
:10089000009200F0C1F8431CDDE900237FF4F4AEC0
:1008A0009A46F4E6542B26D8130B03F16F01C900C6
:1008B0006E3343E7B3F5AA7F26D8F30B03F1780034
:1008C00003F1770CC300EDE5D9F804305B44C9F8B7
:1008D0000430B4E6CAF30B0000287FF4B0AEBD6864
:1008E00008EB0B0343F001036B60F4E61546F2E6F8
:1008F0000123536092E7B3F5AA7F21D8D30B03F10C
:100900007801C900773319E740F25452934221D855
:10091000B30C03F17D0003F17C0CC300C2E5083B7E
:100920009B44ABEB020B4FF0000AB0E605F1080167
:10093000204600F0D7FBBD68D9F804106B68CAE602
:1009400040F254518B420BD8930C03F17D01C90046
:100950007C33F3E64FF47E737F204FF07E0CA1E5ED
:100960004FF47E717E23E9E67B6870E7830730B53C
:1009700048D0541E002A3FD0CAB2034601E0013CD1
:100980003AD303F8012B9D07F9D1032C2DD9CDB211
:1009900045EA05250F2C45EA054536D9A4F1100294
:1009A00022F00F0C03F1200EE6444FEA121C03F173
:1009B000100242E9045542E9025510327245F8D15D
:1009C0000CF1010214F00C0F03EB021204F00F0CF7
:1009D00013D0ACF1040323F003030433134442F8AF
:1009E000045B9342FBD10CF003042CB1CAB21C444B
:1009F00003F8012B9C42FBD130BD64461346002C0A
:100A0000F4D1F9E703461446BFE71A46A446E0E7E7
:100A1000704700BF704700BF38B5074D002204463D
:100A200008462A6001F078FC431C00D038BD2B68D2
:100A3000002BFBD0236038BDD008002438B5D0F897
:100A4000DC420CB1002038BD80210546FFF7E4FCF4
:100A50000246C5F8DC0230B1031F7C3243F8044F74
:100A60009342FBD1EEE74FF0FF3038BD1F29F8B5B8
:100A7000054609D8D0F8DC620C4617464EB156F848
:100A8000240046F82470F8BD162303604FF0FF30B1
:100A9000F8BD8021FFF7C0FC0646C5F8DC0240B176
:100AA000031F00F17C05002143F8041F9D42FBD188
:100AB000E5E74FF0FF30F8BD1F2938B5054621D8CE
:100AC000D0F8DC220C466AB152F8213053B1012B28
:100AD00016D0591C10D00025204642F824509847C3
:100AE000284638BD284600F003F92246014628462C
:100AF000BDE8384000F0E6B816230360012038BD99
:100B0000002038BD162303604FF0FF3038BD00BF12
:100B10001F292CD8D0F8DC2238B50C46054682B106
:100B200052F8243002EB84024BB1591C1AD0012B2D
:100B300016D00025204615609847284638BD01206C
:100B400038BD8021FFF768FC0246C5F8DC0258B1C9
:100B5000031F00217C3043F8041F9842FBD1DFE7DC
:100B6000032038BD022038BD4FF0FF3038BD4FF0B4
:100B7000FF30704738B5154B1F281D6820D8D5F8B1
:100B8000DC22044662B152F820304BB1012B15D063
:100B9000591C0FD0002542F820509847284638BDF0
:100BA000284600F0A5F8224601462846BDE8384010
:100BB00000F088B816232B60012038BD002038BD16
:100BC00016232B604FF0FF3038BD00BF000000241B
:100BD000134B1F2870B51E6809D80D46D6F8DC12D5
:100BE000044649B151F8240041F8245070BD162341
:100BF00033604FF0FF3070BD80213046FFF70CFCB2
:100C00000146C6F8DC0240B1031F00F17C0C002253
:100C100043F8042F6345FBD1E4E74FF0FF3070BD8C
:100C20000000002438B50C4B1D68D5F8DC420CB12F
:100C3000002038BD80212846FFF7EEFBC5F8DC0216
:100C400038B1031F00F17C0243F8044F9342FBD1FB
:100C5000EEE74FF0FF3038BD0000002438B5184BE8
:100C60001F281D6828D8D5F8DC22044682B152F826
:100C7000243002EB84024BB1591C1BD0012B17D03E
:100C80000025204615609847284638BD012038BD0C
:100C900080212846FFF7C0FB0246C5F8DC0258B1A8
:100CA000031F00217C3043F8041F8342FBD1DEE7A1
:100CB000032038BD022038BD4FF0FF3038BD00BFE3
:100CC0000000002470B50C46084D0346002620465F
:100CD00011461C462E6001F017FB431C00D070BD6E
:100CE0002B68002BFBD0236070BD00BFD008002410
:100CF00001F002BB00000000000000000000000046
:100D0000A2EB0300704700BF02780B78012A28BFCE
:100D10009A42F5D16DE9044540EA0104CDE9026744
:100D20006FF0000C4FEA447212B380EA010414F031
:100D3000070F6AD100F0070420F0070004F0030554
:100D400021F007014FEAC505F0E8042314F0040F71
:100D5000F1E804670CFA05F462EA040266EA0406A4
:100D60000AD063EA0403624667EA0407664603E0C2
:100D7000F0E80423F1E8046782FA4CF582EA0604FD
:100D8000A4FA8CF46CBB83FA4CF583EA0705A5FA48
:100D90008CF595B950E9022351E9026782FA4CF5C6
:100DA00082EA0604A4FA8CF483FA4CF583EA070578
:100DB000A5FA8CF52543DBD09CB92DBAB5FA85F49C
:100DC00024F0070427FA04F1DDE9026723FA04F3AB
:100DD00003F0FF0001F0FF01FDE80445A0EB010076
:100DE000704724BAB4FA84F424F0070426FA04F114
:100DF000DDE9026722FA04F202F0FF0001F0FF01D0
:100E0000FDE80445A0EB0100704714F0030F3CD14E
:100E100010F0030428D150F8082B51F8083B82FA4F
:100E20004CF582EA0305A5FA8CF55DB950F8042C5F
:100E300051F8043C82FA4CF582EA0305A5FA8CF5D8
:100E4000002DE8D02DBAB5FA85F424F0070423FA72
:100E500004F122FA04F202F0FF0001F0FF01FDE8C4
:100E60000445A0EB010070474FEAC40420F00300E2
:100E700050F8082B21F0030151F8083B0CFA04F458
:100E800062EA040263EA0403C9E710F003041AD01B
:100E9000A1EB040120F00300E40750F8042B06D076
:100EA0000FD28B785FFAA2F4E41A06D12BB1CB787B
:100EB0005FFAB2F4E41A00D11BB920465DF8104B7A
:100EC000704701F1040150F8042BCC0721F0030115
:100ED00051F8043B48D824D222F07F4482FA4CF5E2
:100EE00094EA1325A5FA8CF50AD165B951F8043BAB
:100EF00084EA0204B4EB036F0ED150F8042BEBE745
:100F00004FEA132355E035F07F454DD10878FDE8D1
:100F10000445C0F1000070474FEA126203F0FF037E
:100F200047E002EA1C4482FA4CF594EA1345A5FA1C
:100F30008CF50AD165B951F8043B84EA0204B4EB9C
:100F4000034F0CD150F8042BEBE74FEA134330E08A
:100F500015EA1C4528D10B884FEA124229E04FEAD6
:100F6000124203EA1C4324E002F0FF0482FA4CF52B
:100F700094EA1365A5FA8CF50AD165B951F8043BDA
:100F800084EA0204B4EB032F09D150F8042BEBE7F9
:100F90004FEA13630DE015F0FF0F05D10B684FEA20
:100FA000122223F07F4304E04FF00000FDE80445E7
:100FB000704712BA1BBA82FA4CF482EA0304A4FA0C
:100FC0008CF5B5FA85F402FA04F203FA04F34FEA59
:100FD0001260FDE80445A0EB1360704770B4184C34
:100FE0002568D5F848411CB365681F2D25DC38B944
:100FF000AB1C0135656044F82310002070BC7047BD
:1010000004EB850C0228CCF88820D4F888614FF0D6
:10101000010202FA05F246EA0206C4F88861CCF839
:101020000831E5D1D4F88C311343C4F88C31DFE7B3
:1010300005F5A674C5F84841D6E74FF0FF30DDE767
:10104000943A0008F8B5244F0C460646FFF7E0FC3A
:10105000BA685568C4F57E630F3325F003052B4449
:1010600023F47F6323F00F03A3F58054B4F5805F6E
:1010700007DB00213046FFF7CFFCBB682B449842CA
:1010800004D03046FFF7C6FC0020F8BD6142304670
:10109000FFF7C2FC01300DD0104ABB682D1B45F094
:1010A00001055D60136830461B1B1360FFF7B2FC3F
:1010B0000120F8BD00213046FFF7AEFCBA68831A64
:1010C0000F2BDEDD43F001035360054B03491B6822
:1010D000C01A0860D5E700BF30040024A00800242F
:1010E00038080024002961D0F8B50C460646FFF701
:1010F0008FFC54F8042C7B4FA4F1080522F0010169
:1011000005EB010CB868DCF80430604523F00303FC
:1011100000F08B80D207CCF8043032D454F8082C7D
:10112000AD1A1144AA6807F1080082426AD00CEB9C
:101130000304D4F804E0EC68D4601EF0010FA26050
:1011400000F0978041F001036B60CCF80010B1F51E
:10115000007F35D27A68CB084809012101338140EC
:101160001143796007EBC30257F83310083AC5E919
:10117000021247F83350CD603046BDE8F840FFF723
:1011800049BC0CEB03025268D00710D4194407F194
:101190000800DCF80830834273D0DCF80C20DA60F9
:1011A000936041F001036B606950D0E7704741F0F4
:1011B0000103B1F5007F44F8043CCCF80010C9D31A
:1011C000B1F5206F4FEA512348D28B0903F1390062
:1011D00003F13802C300F818FB580838984259D078
:1011E0005A6822F003028A4202D99B689842F7D1DA
:1011F000D868C5E902308560DD603046BDE8F8405A
:10120000FFF708BC0CEB03025268D20763D40B440F
:10121000DCE90212CA60916043F001026A60304664
:10122000EB50BDE8F840FFF7F5BB0B44D10707D4FE
:1012300054F8082CAD1A1344D5E90212CA60916023
:1012400043F001026A60284ABD6012689A4293D84E
:10125000264B30461968FFF7F5FE8DE7142B0AD9A7
:10126000542B1FD80B0B03F16F0003F16E02C30068
:10127000B1E719448DE703F15C0003F15B02C300A1
:10128000A9E741F00103C7E90455C5E902006B6015
:10129000695071E779689210012404FA02F20A4356
:1012A0007A60A6E7B3F5AA7F06D8CB0B03F17800E6
:1012B00003F17702C3008EE740F25452934206D8FE
:1012C0008B0C03F17D0003F17C02C30083E74FF434
:1012D0007E737E227FE741F001036B60CCF8001043
:1012E0004AE700BF300400243C0800249C08002486
:1012F00003685A004CBF43F0004323F000431844F6
:10130000704700BF2DE9F84329B34F1E0446154628
:101310003E464FF0000808EB060101EBD171491081
:1013200004EBC1094846FFF7E3FF0346C800083055
:101330008F42204409D0AB4209D8FFF7D9FF0138CA
:10134000A8420AD201F10108E5E7AB4205D9884578
:1013500001D04E1EDFE74FF000094846BDE8F88394
:10136000012807D0022807D0044B00280CBF1846DC
:10137000002070470248704702487047391A000839
:101380003D1A0008411A000830B5234B83B00446CB
:101390008D1E3BB301A92846AFF30080E8B1019947
:1013A0002A46FFF7AFFF0146B8B1FFF7A1FF4B6830
:1013B000A064012B2CD0002B01F1040024DBFFF7EB
:1013C00097FF0023C4E913030368002B11DBFFF729
:1013D0008FFF2061002003B030BD0023092023616E
:1013E00003B030BD0D4B0E49C91AC9101846019102
:1013F000D6E7C3F30360FFF7B3FF0028206114BFF3
:101400000020092003B030BD0123C4E91303DBE74A
:10141000002323610520DEE700000000583D00089E
:10142000F83E00080368DA0710B5044606D49B07A7
:1014300000F1480009D500F05BFC2368590709D585
:101440001A070ED5DB0613D510BD00F049FC236842
:101450005907F5D404F1D00000F052FC23681A07B4
:10146000F0D404F5A87000F053FC2368DB06EBD43D
:1014700004F5E870BDE8104000F08EBC092070470C
:101480000346006800B11844704700BF704700BFB2
:1014900070B504460E46316C2046FFF775FF0546D1
:1014A00088B9326C6261236932462146012098472F
:1014B0000828F0D0072806D12846316CFFF7E6FF50
:1014C000301D00F001FCFEF74FFF00BF2DE9F04793
:1014D0000D1DD0F80C80D0F81890074614460FCD9B
:1014E000ADF5727D0DF10C0CACE80F000FCDACE842
:1014F0000F000FCDACE80F0095E80F0002AE4FF0E3
:10150000000E8CE80F00C6F800E020E0336C7B6131
:101510004FF4F07231467AA800F054FE3B697AAA83
:10152000394650469847889B73642146CDE9006947
:1015300005463B463A460120C0470446E0B94FF411
:10154000F0727AA9304600F03DFE082D1AD1316CB8
:101550003846FFF719FF09345FFA84FA0546002878
:10156000D4D0B36B73643A46CDE900693B464AF088
:1015700010010120C04700B1092528460DF5727DF4
:10158000BDE8F087072DF7D12046316CFFF77EFFCD
:1015900003A800F099FB00BF406C7047F0B5CB6B1F
:1015A0000B6401F1040C0E460546BCE80F00F9B0CF
:1015B00001AC0FC4BCE80F000FC4BCE80F000FC49F
:1015C0009CE80F004FF0FF3784E80F00009706E01B
:1015D0002B696A46294698470828044608D110997D
:1015E0002846FFF7D1FE0028F2D0092079B0F0BDDF
:1015F0006846FFF717FF062CF7D131462846FFF75C
:1016000047FF00BFC160D96B82611964002219468F
:101610005CE700BF70B5C66843690B64AEB9036987
:101620000A4604460D46014602209847072805D081
:1016300008280FD129462046FFF72AFF3046296C9B
:10164000FFF724FF281D00F03FFB0122FFF73EFFBC
:10165000FEF78AFEFEF788FEC2681AB1CA6B0A64FA
:10166000002233E79AE700BF704700BF8368014656
:101670000BB1012018477047012912D009D873B95E
:101680000F2A0CD800EB820218465368009A1360A8
:1016900070470339012994BF0120022070470220BE
:1016A00070470846704700BF00B585B00A46002362
:1016B00003A900911946FFF7DFFF039805B05DF815
:1016C00004FB00BF012912D009D873B90F2A0CD826
:1016D00000EB8200009A1268426018467047033996
:1016E000012994BF0120022070470220704708465C
:1016F000704700BF10B584B0002303AC0392009480
:101700000A461946FFF7DEFF04B010BD70B5D36B73
:10171000136402F1040C05460C46BCE80F00ADF55D
:101720000E7D0DF15C0EAEE80F00BCE80F00AEE8D8
:101730000F00BCE80F00AEE80F009CE80F004FF070
:10174000FF368EE80F00169610E0FFF7D3FF214614
:1017500016A8A847034616AA6946082083B9049B21
:101760009847052806460CD0092809D026996846CE
:10177000FFF70AFE03466A460C2116A8002BE4D0A8
:10178000092616A8FFF74EFE30460DF50E7D70BDFA
:101790002DE9F04FCC6C89B01E4654F8043B0694FA
:1017A0000D46174600F00308002E79D01A0C1B04D2
:1017B00005938DF81D200223D2B204EB82048DF82C
:1017C0001C302B6DB8F1020F08BFAC6B13F0010396
:1017D0000CD005A9384600F079FB18B9082009B0EB
:1017E000BDE8F08F092009B0BDE8F08FD4F800A063
:1017F000BAF1000FEDD0019300F008030293022E1E
:101800004AD0B4F800A0B4F802900434AB6C29F0CC
:10181000010B0F2138469B44FFF746FF834539D81B
:101820002AF001039B44834594BF002001204FEA26
:10183000490303F002030AF0010A43EA0A03012BF9
:1018400049D0022B32D0002BCCD1B8F1000F02D0FE
:10185000002840F0CD800434D4F800A0BAF1000F85
:10186000CDD105A9384600F031FB0028BAD1019B43
:10187000002BB3D00F213846FFF716FF0E2102468A
:101880003846FFF737FF38466A4A0F21FFF732FF25
:101890000720A8E70020CAE7D4F804900834B5E789
:1018A0001B0205930323ADF81C308AE7236823F05D
:1018B000004BB8F1000F45D128B1029A002A5CD044
:1018C000BBF1000F74D0002B00DA04340BF1010BD4
:1018D00004EB8B04C0E7B8F1000F19D1B0B1636815
:1018E0002268991C4FEAD2723FF47CAF05F158018F
:1018F0000133049100F09080201DFFF7C1FD04AB7F
:101900000146284601F034FA00285BD10834A3E7E9
:101910000D213846D5F82090FFF7C6FE8145F5D158
:10192000AB6A9C42F2D12046FFF7E2FC0F2102464F
:101930003846FFF7DFFE38462A460021FFF7DAFE79
:10194000072050E70D213846D5F82090FFF7ACFE70
:10195000814501D02368B6E7AB6A9C42FAD10423E3
:101960000022C5E90B23E318C5F828B06B63236890
:10197000002B59DB01230193A8E705F15803CDF8AB
:101980000C8004F1040AB04691461E460EE0504613
:101990000496FFF775FD0022014604AB284609F1C5
:1019A00001090AF1040A01F0E3F9E0B9D945EED1E1
:1019B0000D213846FFF778FE049BAC62C5E90803A9
:1019C000062010E781460D213846FFF76DFEB9F17C
:1019D000020F286225D12B46049A43F82C2F6B6204
:1019E000AC620620FFE646462368DDF80C806AE715
:1019F0002046FFF77DFC04340246AC6328461446BB
:101A000001F010FA00283FF4EDAE384622460F21CF
:101A1000FFF770FE0720E6E60D213846FFF744FE8B
:101A20002862049B6B62DBE70BF1010004EB800092
:101A30007AE700BF552F00080023A9E60123A7E697
:101A40000223A5E62DE9F0430646C3B015461C4621
:101A5000042900F2BF80DFE801F09E57BD2D03008E
:101A6000002C40F0B780102A00F2B4800368D8063A
:101A700000F1F98020AF384600F098F9B46B394690
:101A800000234FF0010C0CFA03F22A42204603F126
:101A9000010303D050F8042B0A600446042B01F123
:101AA0000401F0D13846B46300F076F9002043B069
:101AB000BDE8F083032C40F08D8094B204EB124318
:101AC000102B4FEA124500F2858003681F0700F1D2
:101AD000D28020AF384600F03DF9B26B07EBC5016C
:101AE00054B10B46D01A01EBC401E4001D5843F871
:101AF000045B8B42FAD122443846B26300F008F905
:101B0000002043B0BDE8F083012C4FEA124895B2A3
:101B10005CD0052C5ED108EB0509B9F1200F59D82E
:101B2000B8F10F0F79D9A946002D40F08A80B36B28
:101B30006DB320AF4FF0000907EBC807043F03EB7C
:101B4000C50553F8041B47F8041FAB42F9D1B9F19E
:101B5000000F0FD06F464146102938BF102107EB08
:101B6000C101843903EBC90553F8040B41F8040F94
:101B7000AB42F9D1012C00F08680B8F10F0FB563AC
:101B800047D9B9F1000F02D0684600F0B9F800203B
:101B900043B0BDE8F083ECB9806B23461FFA82FCAA
:101BA0000124371D04FA03F212EA0C0F014604D097
:101BB00051F8042B47F8232008460133102BF1D1AC
:101BC00015F40055E3D1B063284604E008EB0503A3
:101BD000102B03D9022043B0BDE8F083B8F10F0FFA
:101BE000F8D83368DA0706D5304623F0030340F807
:101BF000483B00F079F820AF384600F075F8B36B39
:101C0000002D97D11D460435B563384600F068F8BD
:101C1000BDE720A800F06CF8B3E7B9F1100F40D988
:101C2000A9F110093368D90708D523F0010330461C
:101C300043F0020340F8483B00F05EF8B9F1000FB2
:101C400032D033685A0720D4B8F10F0F25D96F4628
:101C50003846C8F1100500F057F8002DB36B7FF738
:101C60007AAF20AF68E723F01003336006F5E87021
:101C700000F09CF8FEE623F00803036000F5A8706E
:101C800000F068F825E720AFBDE7304623F00403F5
:101C900040F8D03B00F038F8D6E720A800F02CF848
:101CA000D5E74FF00009BDE7B8F10F0F3FF63FAFA2
:101CB00020AF384600F020F8B36B002D7FF43AAF28
:101CC000384600F015F862E700F1340191E8380079
:101CD0009C46A6464CF8045D90E8FF0FE54600BD23
:101CE00090EC210B704700BF80EC210B704700BFC8
:101CF00090EC200B704700BF80EC200B704700BFBA
:101D0000D0EC200B704700BFC0EC200B704700BF29
:101D1000F0EC0201F0EC0211F0EC0221F0EC0231E7
:101D2000F0EC0241F0EC0251F0EC0261F0EC0271D7
:101D3000F0EC0281F0EC0291F0EC02A1F0EC02B1C7
:101D4000F0EC02C1F0EC02D1F0EC02E1F0EC02F1B7
:101D5000704700BFE0EC0201E0EC0211E0EC022170
:101D6000E0EC0231E0EC0241E0EC0251E0EC026117
:101D7000E0EC0271E0EC0281E0EC0291E0EC02A107
:101D8000E0EC02B1E0EC02C1E0EC02D1E0EC02E1F7
:101D9000E0EC02F1704700BFB0FC0181B0FC0191A2
:101DA000B0FC01A1B0FC01B1704700BFA0FC0181F3
:101DB000A0FC0191A0FC01A1A0FC01B1704700BFF3
:101DC000EC4600B52DE900502DE9FF1F4FF0000350
:101DD0002DE90C0001A9FFF7E1FBDDF840E012B0AE
:101DE000704700BFEC4600B52DE900502DE9FF1FFC
:101DF0004FF000032DE90C0001A9FFF70BFCDDF803
:101E000040E012B0704700BFEC4600B52DE900502D
:101E10002DE9FF1F4FF000032DE90C0001A9FFF78A
:101E20001BFCDDF840E012B0704700BFEC4600B587
:101E30002DE900502DE9FF1F4FF000032DE90C00A4
:101E400001ABFFF7DFFBDDF840E012B0704700BFE9
:101E5000EC4600B52DE900502DE9FF1F4FF00003BF
:101E60002DE90C0001AAFFF751FCDDF840E012B0AB
:101E7000704700BF027A03467AB9427AA2B141683C
:101E8000013A10B44272086803220C1D1A72020251
:101E90005C60000E10BC1A6070470068013A1A724C
:101EA00002021A60000E7047B020704700B585B07E
:101EB000002303AA009219460C22FFF7DDFB0398CA
:101EC00005B05DF804FB00BFF0E700BF2DE9F0436B
:101ED000054685B00E464FF000083046FFF7CAFFB2
:101EE000B028044600F0BA80070620D500F0F003C1
:101EF000802B4DD0902B36D0A02B60D0B02B74D03F
:101F0000C02B00F08B8000F0F803D02B0BD100F039
:101F100007020132052342F4002201212846FFF77F
:101F200091FD0028D9D0092005B0BDE8F0838300D9
:101F3000DBB21F1D0DF10C0900231946CDF80090EE
:101F40000D222846FFF798FB039BCDF80090600612
:101F50004CBFDF1BFF1800230D22194628460397AC
:101F6000FFF7B0FBB9E700F00D030D2BDBD003AF9B
:101F7000002300F00F02194600972846FFF77CFB6C
:101F8000002300970D2219462846FFF79BFBA4E784
:101F90003046FFF76FFF24022043B0F5004FC2D058
:101FA00004010023A2B219462846FFF74BFD002882
:101FB000B9D114F4004F18BF4FF001088DE7C243A8
:101FC00002F007034FF47F621A41010702F47F62B7
:101FD0004FF0000348BF42F4804219462846FFF7FD
:101FE00031FD00283FF479AF9DE7B1283BD0B228FE
:101FF00000F09380B32841D000F0FC03B42B92D0C2
:1020000000F007020132012342F40022194628465B
:10201000FFF718FD00283FF460AF84E7C6284AD0D8
:10202000C72854D000F0F803C02B63D0C82868D06C
:10203000C9287FF478AF3046FFF71CFF020300F099
:102040000F0002F4702201300243012105232846CB
:10205000FFF7F8FC00283FF440AF64E7B8F1000F49
:1020600018D0002060E73046FFF704FF0246002842
:102070003FF459AF10F0F003C8D054E73046FFF7F3
:10208000F9FE020300F00F03013302F470221A4339
:102090000123BBE703AC43460E2241460094284689
:1020A000FFF7EAFA009443460F2241462846FFF71D
:1020B00009FB404638E73046FFF7DCFE020300F03C
:1020C0000F03013302F470221A4303239EE73046C4
:1020D000FFF7D0FE024600283FF425AF10F0F003D2
:1020E0007FF421AF04212846FFF7ACFC00283FF421
:1020F000F4AE18E700F00F020132032342F420226D
:1021000084E73046FFF7B6FE00F0F00200F00F0360
:102110001032013343EA023297E700230DF10C0934
:102120000D221946CDF800902846FFF7A5FA304653
:10213000FFF7A0FE02064FF002040CD5039B00F04F
:102140007F00A040184403903046FFF793FE03063B
:1021500004F10704F2D4039BCDF8009000F07F0255
:10216000A24003F501731A440023039219460D227D
:102170002846FFF7A7FAB0E610B5C26C536884B0E2
:102180004FF0030C08321C0208461B0E01A90194F3
:1021900002928DF80CC08DF80D30FFF797FE04B059
:1021A00010BD00BF08B5FFF78FFE806C08BD00BFF3
:1021B00008B5FFF789FEC06CC379023300EB8300DA
:1021C00008BD00BF844641EA000313F003036DD14C
:1021D000403A41D351F8043B40F8043B51F8043BEA
:1021E00040F8043B51F8043B40F8043B51F8043BF1
:1021F00040F8043B51F8043B40F8043B51F8043BE1
:1022000040F8043B51F8043B40F8043B51F8043BD0
:1022100040F8043B51F8043B40F8043B51F8043BC0
:1022200040F8043B51F8043B40F8043B51F8043BB0
:1022300040F8043B51F8043B40F8043B51F8043BA0
:1022400040F8043B51F8043B40F8043B51F8043B90
:1022500040F8043B403ABDD2303211D351F8043B30
:1022600040F8043B51F8043B40F8043B51F8043B70
:1022700040F8043B51F8043B40F8043B103AEDD2DF
:102280000C3205D351F8043B40F8043B043AF9D230
:10229000043208D0D2071CBF11F8013B00F8013B03
:1022A00001D30B8803806046704700BF082A13D310
:1022B0008B078DD010F003038AD0C3F10403D21A28
:1022C000DB071CBF11F8013B00F8013B80D331F85C
:1022D000023B20F8023B7BE7043AD9D3013A11F8DC
:1022E000013B00F8013BF9D20B7803704B78437047
:1022F0008B78837060467047024B58221A604FF00B
:10230000FF307047D0080024024B58221A604FF06B
:10231000FF307047D0080024044A05491368002B99
:1023200008BF0B461844106018467047D4080024B4
:1023300028090024FEE700BF80B584B000AF7860B4
:1023400007F10C037968184600F0F0F8FB681846AE
:102350001037BD4680BD80B483B000AF78607B6825
:102360001B6818460C37BD465DF8047B704780B586
:1023700082B000AF786039607B683968184600F039
:1023800005F8034618460837BD4680BD80B483B0C3
:1023900000AF786039603B689B007A681344184648
:1023A0000C37BD465DF8047B704780B483B000AF46
:1023B0007860032318460C37BD465DF8047B7047F0
:1023C00080B58AB000AF7860396000F011F900F094
:1023D00039F90346FB61FB691B681846FFF7ACFF40
:1023E0003861FB695B681846FFF7A6FF7861FB69F7
:1023F0009B681846FFF7A0FFB86107F110030021A2
:102400001846FFF7B4FF03461846FFF7A4FF03463C
:102410001A680432126801211846904700237B6233
:1024200007F110031846FFF7C0FF0346013B7A6A25
:102430009A4234BF01230023DBB2002B36D00023A5
:10244000FB60FB68384A934294BF01230023DBB250
:10245000002B03D0FB680133FB60F2E707F11003A8
:10246000796A1846FFF783FF03461846FFF773FFA4
:1024700003461A68043212680021184690477B6AA6
:102480005A1C07F1100311461846FFF770FF034668
:102490001846FFF760FF03461A68043212680121EC
:1024A000184690477B6A01337B62B9E702233B629F
:1024B0003B6A002BB2DD0023BB60BB681A4A934223
:1024C00094BF01230023DBB2002B03D0BB68013390
:1024D000BB60F2E73A6A07F1100311461846FFF7AE
:1024E00046FF03461846FFF736FF03461A680432D4
:1024F00012680021184690473B6A013B1A4607F1D3
:10250000100311461846FFF732FF03461846FFF73F
:1025100022FF03461A6804321268012118469047C8
:102520003B6A013B3B62C3E7FF340C0080B582B0DD
:1025300000AF78603960386800F00CF80346184640
:1025400000F013F802467B681A607B68184608376B
:10255000BD4680BD80B483B000AF78607B6818460C
:102560000C37BD465DF8047B704780B582B000AF84
:102570007860786800F005F8034618460837BD46CD
:1025800080BD80B483B000AF78607B6818460C379C
:10259000BD465DF8047B7047DFF838D000F072FA72
:1025A00000F0E0F90C480D490D4A002302E0D45830
:1025B000C4500433C4188C42F9D30A4A0A4C00238D
:1025C00001E013600432A242FBD3FDF7F1FEFFF7F6
:1025D000F7FE704700000524000000248008002456
:1025E0000C3F00088008002424090024FEE70000B6
:1025F00080B582B000AF0023FB710E4BD3F8E03002
:102600000C4A43F01203C2F8E0300B4800F0CEF859
:102610000346FB71094800F0C9F80346FB710848FE
:1026200000F0C4F80346FB71FB7918460837BD4635
:1026300080BD00BF00440258D8080024E8080024E8
:10264000F808002480B400AF024B1846BD465DF880
:10265000047B70476C08002480B582B000AF7860BE
:1026600039607B68012B25D13B684FF6FF7293429E
:1026700020D1124B124A92E80300186004331970FB
:10268000104B0F4A92E803001860043319700E4B88
:102690000B4A92E8030018600433197007490B488D
:1026A00000F060F807490A4800F05CF8064909485C
:1026B00000F058F800BF0837BD4680BD4808002428
:1026C000400800245408002460080024D80800248E
:1026D000E8080024F808002480B500AF4FF6FF7129
:1026E0000120FFF7B9FF80BD80B487B000AFF8606C
:1026F000B9607A603B6001223B6802FA03F3013B58
:102700007B61FB681A687B68396801FB03F37969B0
:1027100001FA03F3DB431A40FB681A60FB681A688E
:10272000B9687B6919407B68386800FB03F301FADC
:1027300003F31A43FB681A6000BF1C37BD465DF8FF
:10274000047B704780B483B000AF7860044A7B6834
:102750001A607B6818460C37BD465DF8047B7047ED
:10276000B43A000880B582B000AF786039607B6809
:102770001846FFF7E7FF0C4A7B681A607B683A68E7
:10278000043392E803001860043319703B685A79E7
:102790007B685A723B689A687B68DA607B68184687
:1027A0000837BD4680BD00BFA03A000880B584B0A0
:1027B00000AF78607B68DB68354A934204D07B6861
:1027C000DB68344A934205D17B685B7A0B2B0BD9CB
:1027D000002358E07B685B7A0F2B03D87B68DB68AB
:1027E000002B01D100234EE07B685B7ADB08FB7392
:1027F000FB7B012B04D17B685B7A083BDBB201E0F9
:102800007B685B7ABB737B68DB6818467B681B79E7
:1028100019467B685B7A1A460223FFF765FF7B68DF
:10282000DB68181D7B685B7919467B685B7A1A4602
:102830000123FFF759FF7B68DB6803F108007B6821
:102840009B7919467B685B7A1A460223FFF74CFF97
:102850007B68DB6803F10C007B68DB7919467B68D9
:102860005B7A1A460223FFF73FFF7B68DA68FB7B3F
:1028700008339B00D0187B681B7A1946BA7B042367
:10288000FFF732FF012318461037BD4680BD00BF59
:10289000002402580028025880B584B000AF786048
:1028A0007B685B7A1A4601239340FB737B68DB6885
:1028B0005A69FB7B1340002B14BF01230023BB7319
:1028C0007B681B6804331B68BA7B82F00102D2B2BA
:1028D000114678689847034618461037BD4680BDB4
:1028E00080B483B000AF78600B46FB70FB78002BA0
:1028F0000DD07B68DB6899697B685B7A1A46012397
:1029000003FA02F27B68DB680A439A610BE07B689A
:10291000DB6899697B685B7A103301229A407B6897
:10292000DB680A439A61012318460C37BD465DF8FF
:10293000047B704780B483B000AF78607B68DB684D
:102940001A697B685B7A194601238B401340002B80
:1029500014BF01230023DBB218460C37BD465DF8D7
:10296000047B704780B400AF3E4BD3F888303D4ABB
:1029700043F47003C2F888303B4B1B6803F00F032D
:10298000062B07D8384B1B6823F00F03364A43F059
:1029900007031360354B1B68344A43F0010313608F
:1029A000324B00221A61314B1A683049304B1340C8
:1029B0000B602D4B1B6803F00803002B07D02A4B3C
:1029C0001B6823F00F03284A43F007031360274BCB
:1029D00000229A61254B0022DA61244B00221A6200
:1029E000224B244A9A62214B234ADA621F4B234A24
:1029F0001A631E4B00225A631C4B204A9A631B4BDE
:102A00000022DA63194B1D4A1A64184B00225A64DB
:102A1000164B1B68154A23F480231360134B0022C6
:102A20001A66124BD3F8D43003F48053002B13D121
:102A30000E4BD3F8D4300D4A43F48053C2F8D4304F
:102A40000F4B43F2D2021A60084BD3F8D430074A36
:102A500023F48053C2F8D43000BFBD465DF8047B38
:102A6000704700BF00ED00E0002000520044025813
:102A70007FEDF6EA000202020000FF018002010180
:102A80000040005280B400AF00BFBD465DF8047B3B
:102A90007047000070B5036884B000249E690394F9
:102AA000102315460293CDE900446B461268B047E7
:102AB0009DF8043003F00603062B03BF009B2B6038
:102AC0000120204604B070BD0098904214BF012040
:102AD0000620704710B5034B0360044600F0EAF887
:102AE000204610BD2C3B000810B5054B0360044682
:102AF00000F0E0F82046082100F04AF8204610BD1A
:102B00002C3B00082DE9F041069F0899099E8F4251
:102B1000044690461D460CD02946204600F0CEF8CB
:102B200020B10123376086F80480B3710020BDE82E
:102B3000F081079900F0C2F80028EDD086F80580F2
:102B40000020BDE8F08100BF38B515461C4600F0F6
:102B5000B5F800B938BD082206232560E26023716C
:102B600038BD00BF2DE9F041064617461D460C460C
:102B700000F0A4F848B9032D07D823683A46314637
:102B800020465B69BDE8F0411847BDE8F08100BF11
:102B900000F0AAB808B500F0BDF800BF10B5034BAF
:102BA00003600446FFF796FF204610BD8C3B0008EB
:102BB00010B5054B03600446FFF78CFF20460C213F
:102BC000FFF7E6FF204610BD8C3B000870B582B0D1
:102BD0000446069E96420D4609D0A06804680696F3
:102BE000246A2946A44602B0BDE8704060471946F1
:102BF0000192009300F062F8DDE900320028ECD089
:102C0000062002B070BD00BF2DE9F04F0C4681B028
:102C10001946DDE90A69DDE90C879B4605469246BF
:102C200000F04CF880B9464525D0A86821460468D4
:102C3000CDE90C87CDE90A69E4695B465246A446B2
:102C400001B0BDE8F04F6047002C3E6087F804A05B
:102C50000CDB3444A0450CBF4FF006084FF00108D0
:102C600087F80680002001B0BDE8F08F0234F9D16A
:102C70000123BB71F6E74946284600F01FF80028FB
:102C8000D3D087F805A0EDE72DE9F04106460F46C1
:102C900014461D46FFF758FF48B9B0680168224640
:102CA0008C692B463946A446BDE8F0416047BDE833
:102CB000F08100BF704700BF00207047814211D0F3
:102CC00008B5406803782A2B0AD049680B782A2B6C
:102CD00008BF0131FEF718F8B0FA80F0400908BDCE
:102CE000002008BD01207047FDF78EBB00B583B002
:102CF0008047FDF739FB00F09FF9FDF735FB0C46E7
:102D0000019000F0D7F90134019801D100F022F9C7
:102D100000F028F808B5034B1868BFF35B8FFFF786
:102D2000E5FF00BF7C08002408B58047FFF7F2FFED
:102D300008B5034B1868BFF35B8FFFF7F5FF00BFC3
:102D400078080024024B1868BFF35B8F704700BF00
:102D50007C080024024B1868BFF35B8F704700BFEC
:102D6000780800241EB400F08FF81EBCFFF73AF874
:102D7000F0B50278472A83B00C461D4619D00023CF
:102D8000264E0193336830469B68984778B1019B83
:102D90001B68019302272368314620461E6901AA59
:102DA0000123B04718BB0746384603B0F0BD0127E2
:102DB000F1E743784E2BE2D18378552BDFD1C378EE
:102DC000432BDCD10379462B1BD00379432BD6D17F
:102DD00043792B2BD3D183792B2BD0D1C379012BE2
:102DE000CDD809D050F8206C58300190CAE7019B2B
:102DF0002B60384603B0F0BD50F8200C50F8786CCA
:102E0000F3E743794F2BE0D18379522BDDD1C3799E
:102E1000002BDAD1024E0193B4E700BFE43B000877
:102E2000DC3B000810B5044600F09CF9224612F87D
:102E30002039472B04D0836823BB8260012010BD5A
:102E400063784E2BF7D1A378552BF4D1E378432B3D
:102E5000F1D12379432BEED163792B2BEBD1A379DD
:102E60002B2BE8D1E379012BE5D854F8043C01334E
:102E7000012B44F8043CE1D1836844F8083C8260AB
:102E8000012010BDFFF746FF08B500F06BF983681D
:102E900083B393F82020472A04D00022826003F1F4
:102EA000200008BD93F821204E2AF6D193F8222065
:102EB000552AF2D193F82320432AEED193F8242007
:102EC000432AEAD193F825202B2AE6D193F826202D
:102ED0002B2AE2D193F82720012ADED8DA69013AB9
:102EE000DA61002ADBD19969816000229A6103F1DD
:102EF000200008BDFFF70EFF0378472B01D000200C
:102F0000704743784E2BFAD18378552BF7D1C3788D
:102F1000432BF4D10379432BF1D143792B2BEED101
:102F200083792B2BEBD1C07901288CBF00200120A5
:102F3000704700BF10B530B1044600F07DF8204660
:102F4000FFF7DAFF08B9FFF7E5FE54F8140CFFF7B6
:102F5000CDFE00BF2DE9F04F85B00246FFF7CCFF54
:102F600038B152E90674D2E90C85D2F828A00026BF
:102F700005E004460746012605468046824610467F
:102F800000F05AF80EB1FFF7D3FE3846FFF7CCFE3B
:102F900000F052F80EB1FFF7BDFE00F0DFF8076851
:102FA000DFF890B097F82730012B0CBF3B6807F192
:102FB0007803029328F00303019320374FF00009B0
:102FC000CA4520DDD5F80080B8F1000F00D0A84434
:102FD00002AB002241463846FFF7CAFE08B100F0B6
:102FE00059FCD8F80030039003AA40465946D3F85C
:102FF00010800123C047019B002818BF064609F135
:1030000001091D44DCE746B1042000F0EBFC074B4E
:10301000074A0849036000F021FC2046FFF766FEDE
:1030200000F048F800F046F8FFF79CFE703C0008FE
:1030300041310008EC3B000838B5044600F092F836
:103040002246056812F82039472B03D085BB026061
:10305000284638BD63784E2BF8D1A378552BF5D18F
:10306000E378432BF2D12379432BEFD163792B2BD8
:10307000ECD1A3792B2BE9D1E379012BE6D854F8D5
:103080000C3C002B11DB013344F80C3C4368013B42
:103090004360954218BF44F8105C656A18BF02602F
:1030A0002046FEF7E1FA284638BDC3F10103EBE7FD
:1030B000FFF730FE08B500F051F803687BB393F8D2
:1030C0002020472A07D00022026003F12000BDE83B
:1030D0000840FEF7CBBA93F821204E2AF3D193F89B
:1030E0002220552AEFD193F82320432AEBD193F8DD
:1030F0002420432AE7D193F825202B2AE3D193F803
:1031000026202B2ADFD193F82720012ADBD85A6901
:10311000002A05DB013A08D0511C0ED05A6108BDC7
:103120000132FBD119690160F8E71A69026003F105
:103130002000BDE80840FEF799BAFFF7EBFD00BF9D
:10314000704700BF00487047C83B000810B5042115
:103150000446FFF71DFD204610BD00BF0048704724
:10316000080900240048704708090024502870B559
:103170001DD0844600F00F000C2855D8DFE800F081
:10318000074426071E545454542A22071E00104692
:1031900050F8046B4EB10CF07004102C08BF1146AF
:1031A0000E441CF0800F18BF36681E6070BD0332DD
:1031B00022F0030050F8046B1E6070BD104650F8FA
:1031C000086BE7E7104630F9026BE3E7104630F88A
:1031D000026BDFE700261046344610F8015B05F06D
:1031E0007F0E0EFA04FE15F0800F46EA0E0604F17B
:1031F0000704F2D11F2CCDD86D06CBD54FF0FF358B
:1032000005FA04F42643C6E700261046344610F8B3
:10321000015B05F07F0E0EFA04FE2D0646EA0E064F
:1032200004F10704F3D4B5E7FDF79EF8FF2822D098
:1032300008B500F07003302B18D006D8202B0BD126
:10324000BDE80840084600F016BC402B0AD1BDE896
:1032500008400846FEF7A6BF02D810F0600F03D062
:10326000FDF782F8502BFBD1002008BDBDE80840D7
:10327000084600F0FDBB0020704700BFF8B50C46C3
:103280001546064608B1FEF78DFF286014F8017B4D
:10329000FF2F29D16860204610F8013B2B75FF2BCA
:1032A00033D0102300242B75224610F8011B01F0A7
:1032B0007F039340090644EA030402F10702F4D4B1
:1032C0000444EC6010F8013B6B750024224610F8B2
:1032D000011B01F07F0393401C430B0602F1070220
:1032E000F5D404442C61F8BD31463846FFF79EFF03
:1032F000224601462B1D3846FFF738FF044620467C
:1033000010F8013B2B75FF2BCBD10023EB60D9E7E5
:103310002DE9F04F00F0030493B00023012C089333
:103320008846174613D0022C08D139464046FEF78E
:1033300023FF40B9082013B0BDE8F08F002C00F047
:103340009480FDF711F8092013B0BDE8F08F0DF15E
:10335000300A10F00804CDF800A000F09D8044F081
:10336000020202920C910C2219463846FEF7AAF985
:103370003846FEF71DFF83460028D6D05246014648
:103380003846FFF77BFF394605469DF84400FFF7B6
:103390004DFF0DF12C0900230E901946CDF8009039
:1033A0000F223846FEF768F90B9B23F001035E1EDF
:1033B000109B9D4237D29DF8454000212046FFF7E3
:1033C00035FF2A46014609AB2046FFF7CFFE9DF8A0
:1033D0004550044600212846FFF728FF22460146B3
:1033E0000AAB2846FFF7C2FE9DF84550044600216F
:1033F0002846FFF71BFF224601464B462846FFF7AB
:10340000B5FE00240546224615F8011B01F07F0396
:1034100093401C430B0602F10702F5D40C9B099A5A
:103420001344B34219D9029BD80730D50024039422
:1034300000231946CDF8009038460D22089DFEF76E
:103440001BF9039BC8F830300B9BC8F82CB0C8E9B7
:1034500009540620C8F820306DE70A9A1344B34295
:103460006ED8109BAB42A6D8DDE702073FF55DAFF3
:10347000012302930DF1300A0023CDF800A00C22A5
:1034800019463846CDF83080FEF71CF970E7029BEC
:103490001A0752D5FFF73EFC0D6A23460D2221463E
:1034A0003846FEF7E9F80C9B9D4202D002230293B6
:1034B000E2E72346CDF800A021460C223846CDF89D
:1034C0003080FEF7FFF8D8F830300393ABB3D8E97B
:1034D0000A4B0DF12C09002C4EDB032500231A4664
:1034E0001946CDF800903846CDF82C80FEF7EAF862
:1034F000002319460122CDF8009038460B94FEF7C0
:10350000E1F8002319460F22CDF800903846FEF767
:10351000B3F80B9A0399CDF8009002F001020A4328
:1035200000230B9238460F221946FEF7CBF8022DE6
:103530001DD0072013B0BDE8F08F4046FFF7FAFC1E
:103540000B9B002B3FF4F1AE0D9A13440393002C18
:1035500038D1002B3FF4E9AE029BDD073FF5E5AE25
:10356000029B1B0740F1238100240225B6E7404659
:10357000FFF758FC0720DEE66FF040431B1B1E469A
:10358000524659463846FFF779FE9DF844003946C1
:10359000FFF74CFE0E9005460F9850F8263000EBD2
:1035A000860033B10246002352F8041F013300297C
:1035B000FAD1C8E90A350423C8F83400C8F8303015
:1035C00003258BE7109E039B013C2644002B3FF410
:1035D000ACAE029B002E00F0E28013F008030493CF
:1035E00000F0C980472388F800304E2388F8013066
:1035F000552388F80230432388F80330462388F89F
:1036000004304F2388F80530522388F80630002311
:1036100088F807300023CDF818B005979B46CDF801
:103620001CA00024224616F8011B01F07F039340E2
:10363000080644EA030402F10702F4D41F2A05D85D
:103640004B0603D5012393405B421C4300253046C3
:103650002A4610F8011B01F07F0393400F0645EA4C
:10366000030502F10702F4D41F2A05D8490603D541
:10367000012393405B421D43002C37D039DCB8F165
:10368000000F02D0049B002B50D06FF0404A0F9BDC
:10369000AAEB040A53F82A30BBB1002D75D02E4492
:1036A000BFE7A3005B420F9A0E991A444B46FFF7FF
:1036B0005DFD0B9949B1B8F1000FEED008AB0022C7
:1036C0004046FFF755FB0028E7D0029BDDF81CA021
:1036D000D907DDE9057B3FF5ABAE049B002B3FF43A
:1036E000FAAE002CBFF6F9AEFFF722FB4FF0010B4C
:1036F000D3E79DF84400FF2831D000F00703042BE6
:103700003FF61FAE01A252F823F000BFA336000817
:103710004333000827370008A33600082137000884
:10372000E3005B42BFE763005B42BCE76FF0404AE7
:103730000F9F089B0B93AAEB040A57F82A1007EB7C
:103740008A0719B90DE057F8041F51B139444B46A7
:1037500000224046FFF70CFB0028F4D09DE7002331
:10376000A1E7029BDA075646DDE9057BDDF81CA0E0
:103770003FF55EAE04E798F80730012B0CBF58F810
:10378000203C08F15803089344E75B46059F002B53
:103790003FF4CBAD029BDB073FF5C7ADE4E6DE07A8
:1037A0003FF5C3AD029B13F008047FF4DDAE0225A4
:1037B00094E6FFF741FC6DE600B5012883B01DD803
:1037C000BFF35B8FA1F1280353E8002F013A43E8D0
:1037D00000200028F8D1BFF35B8F62B951F81C3C80
:1037E00001F1580013B101909847019803B05DF8BA
:1037F00004EB00F00FB903B05DF804FB51F8140CB2
:10380000FFF774FA38B5002540E91E1240F8805CD5
:103810000446FFF79FFA44F8700CFFF793FA43222F
:103820002B23472104F8552C04F8542C04F8533C5E
:1038300004F8523C4E22552304F8581C04F8515CFD
:10384000054904F8572C04F8563C44F86C0C44F82D
:10385000501CA4F1800038BDB937000810B582B003
:10386000CDE900210446FFF77DFC03464068009A3D
:103870000199013058602046FFF7C4FF0446012338
:1038800044F8283B2046FEF79BFA2046FFF7D4FB7E
:10389000FFF740FA10B5FFF765FCD0E900420132AE
:1038A000426064B194F82020472A0AD000220260C6
:1038B00020342046FEF7A8FA2046FFF7BDFBFFF7AD
:1038C00029FA94F821204E2AF0D194F82220552A82
:1038D000ECD194F82320432AE8D194F82420432AF9
:1038E000E4D194F825202B2AE0D194F826202B2A25
:1038F000DCD194F82720012AD8D86269524262614B
:10390000D6E700BF20494B6830B5A0F108046BB37F
:1039100050F8085C04EB050E734527D821D05A688F
:1039200001F1040C32B90FE0516803F1040C21B32A
:1039300013460A469645F7D304BFDEE900215960D5
:10394000DCF8003008BFAD181A6899188C4211D005
:103950005B6840F8043CDCF8003040F8085C5C60D0
:1039600030BD1A685B682A4440F8082C40F8043CD3
:103970004C6030BD2A441A6030BD5B681A689918E3
:103980008C42E5D1F6E700BF14090024144900F188
:1039900008034868082B38BF0823A0B1073323F079
:1039A0000703043102E0011D4068B8B10268934288
:1039B000F9D830B4D41A072C06D84368026030BC5A
:1039C00008300B6070477047C21845685560C45096
:1039D000086830BC036008300A607047704700BF59
:1039E0001409002410B500F180042046FCF704FD02
:1039F000034630B1802200211846FCF7B7FF803023
:103A000010BD2046FFF7C2FF03460028F2D1FFF7A2
:103A100081F900BF064A93688038984205D9D26878
:103A20001344984201D2FFF76DBFFCF7EDBC00BF15
:103A30001409002438B5084C4FF41E652846E5608B
:103A4000FCF7DAFCA06020B10023C0E900536060FD
:103A500038BDE060606038BD14090024024B13B12A
:103A60000248FCF789BC704700000000850300088D
:103A700008B5FCF779FC08B5FFF7FAFFF8B500BF09
:103A8000F8BC08BC9E467047F8B500BFF8BC08BC3F
:043A90009E46704797
:103A94000800002400000000C03A0008992800082B
:103AA400E12800083529000800000000E03A000879
:103AB400952B0008952B0008952B00088C3B0008DB
:103AC400CC3A0008E03A00084E334B464C35537468
:103AD4006D68373648774770696F45002C3B00089E
:103AE400E83A00084E334B464C344770696F450042
:103AF4008C3B0008003B0008B03B00084E31305FAF
:103B04005F637878616269763131375F5F636C61D6
:103B140073735F747970655F696E666F450000004A
:103B240000000000F43A0008D52A0008E92A000839
:103B3400B92C0008B92C0008652B0008952A000848
:103B4400492B0008052B0008C92A00088C3B0008F3
:103B54005C3B0008F43A00084E31305F5F637878CC
:103B6400616269763132305F5F73695F636C617380
:103B7400735F747970655F696E666F45000000005D
:103B840000000000503B00089D2B0008B12B0008EA
:103B9400B92C0008B92C0008652B0008952A0008E8
:103BA400892C0008092C0008CD2B00082C3B0008A8
:103BB400B83B0008537439747970655F696E666F39
:103BC400000000007374643A3A6261645F6578636C
:103BD400657074696F6E00002C3B0008003C00089F
:103BE4002C3B0008203C00088C3B0008443C0008A7
:103BF400F83B00082C3B0008583C00084E31305F6D
:103C04005F637878616269763131355F5F666F72C0
:103C14006365645F756E77696E6445004E31305F2D
:103C24005F637878616269763131395F5F666F729C
:103C34006569676E5F657863657074696F6E45006A
:103C4400537431336261645F657863657074696F5E
:103C54006E000000537439657863657074696F6E23
:103C64000000000000000000EC3B000841310008A7
:083C74004D3100084531000844
:103C7C0009970181B0B00884000000000197018110
:103C8C00B0B008840000000003970181B0B0088434
:103C9C000000000071F6FF7F00840200FF10190184
:103CAC000C04060A010E0412052008000001007F16
:103CBC0000007D00000000000000000008B1018140
:103CCC00B0B000840000000008B10181B0B00084E5
:103CDC000000000031F6FF7FB0AF0400FF101901A7
:103CEC000F320A3C01840142CC0100D401040000D3
:103CFC0001000000000000000DF6FF7FA908B100D4
:103D0C00FFFF010008B10181B0B000840000000089
:103D1C00F5F5FF7FB0AF1200FF101901101E9807C8
:103D2C000000D80704A20901C40804000001000027
:103D3C000000000008B10181B0B000840000000058
:0C3D4C0008B10181B0B00084000000004C
:103D580098D5FF7F0100000028D6FF7FB0A9028018
:103D6800BCD6FF7FB0B0A8800CD7FF7F0100000051
:103D780018D7FF7FB0B0AA804CD7FF7FAE71B28052
:103D880010D8FF7F010000000CD8FF7FAB3F3880C0
:103D98006CD8FF7F0100000074D8FF7FB0B0AA8004
:103DA800B0D8FF7F010000005CD9FF7FAA0DB28068
:103DB800D8D9FF7FB0AF088078DCFF7F0100000012
:103DC8007CDCFF7FAD3F0280F8DEFF7F0100000052
:103DD800D4E0FF7F00840480E8E0FF7F010000005A
:103DE800E4E0FF7FB0AD048088E3FF7FB0A80380E4
:103DF800ACE3FF7F44FFFF7FB0E3FF7F48FFFF7F17
:103E0800BCE3FF7F01000000B0E5FF7F68FEFF7F95
:103E180014E7FF7F01000000D0E7FF7F64FEFF7F0B
:103E28001CE8FF7F0100000068EAFF7F60FEFF7F5B
:103E3800A8EAFF7F0100000054ECFF7FB0AA0380CE
:103E480080ECFF7F0100000038EEFF7FB0B0AC804F
:103E58005CEEFF7F010000008CEEFF7F3CFEFF7FE1
:103E6800ACEEFF7F01000000B8EEFF7F54FEFF7F3D
:103E7800B8EEFF7F58FEFF7FC4EEFF7F0100000011
:103E8800E8EEFF7FB0AB028094EFFF7F01000000F7
:103E9800BCF0FF7F44FEFF7F98F1FF7F60FEFF7F4D
:103EA8000CF2FF7F01000000BCF2FF7FB0B0AA80D7
:103EB80074F3FF7F54FEFF7FBCF3FF7FAB08B18034
:103EC80048F4FF7F50FEFF7FE8F8FF7F0084028000
:103ED8002CF9FF7F010000007CF9FF7FB0A801806A
:103EE800ACF9FF7FB0B0A88014FAFF7F0100000092
:103EF8005D3A000849030008D9260008353A000849
:043F08002103000889
:103F0C00080000240000000000000000F40200245F
:103F1C005C030024C4030024000000000000000027
:103F2C000000000000000000000000000000000085
:103F3C000000000000000000000000000000000075
:103F4C000000000000000000000000000000000065
:103F5C000000000000000000000000000000000055
:103F6C000000000000000000000000000000000045
:103F7C000000000000000000000000000000000035
:103F8C000000000000000000000000000000000025
:103F9C000000000000000000000000000000000015
:103FAC000000000000000000000000000000000005
:103FBC0001000000000000000E33CDAB34126DE6A2
:103FCC00ECDE05000B00000000000000000000000B
:103FDC0000000000000000000000000000000000D5
:103FEC0000000000000000000000000000000000C5
:103FFC0000000000000000000000000000000000B5
:10400C0000000000000000000000000000000000A4
:10433C0000000000000000003004002430040024C1
:10434C0038040024380400244004002440040024D1
:10435C004804002448040024500400245004002481
:10436C005804002458040024600400246004002431
:10437C0068040024680400247004002470040024E1
:10438C007804002478040024800400248004002491
:10439C008804002488040024900400249004002441
:1043AC009804002498040024A0040024A0040024F1
:1043BC00A8040024A8040024B0040024B0040024A1
:1043CC00B8040024B8040024C0040024C004002451
:1043DC00C8040024C8040024D0040024D004002401
:1043EC00D8040024D8040024E0040024E0040024B1
:1043FC00E8040024E8040024F0040024F004002461
:10440C00F8040024F804002400050024000500240E
:10441C0008050024080500241005002410050024BC
:10442C00180500241805002420050024200500246C
:10443C00280500242805002430050024300500241C
:10444C0038050024380500244005002440050024CC
:10445C00480500244805002450050024500500247C
:10446C00580500245805002460050024600500242C
:10447C0068050024680500247005002470050024DC
:10448C00780500247805002480050024800500248C
:10449C00880500248805002490050024900500243C
:1044AC009805002498050024A0050024A0050024EC
:1044BC00A8050024A8050024B0050024B00500249C
:1044CC00B8050024B8050024C0050024C00500244C
:1044DC00C8050024C8050024D0050024D0050024FC
:1044EC00D8050024D8050024E0050024E0050024AC
:1044FC00E8050024E8050024F0050024F00500245C
:10450C00F8050024F8050024000600240006002409
:10451C0008060024080600241006002410060024B7
:10452C001806002418060024200600242006002467
:10453C002806002428060024300600243006002417
:10454C0038060024380600244006002440060024C7
:10455C004806002448060024500600245006002477
:10456C005806002458060024600600246006002427
:10457C0068060024680600247006002470060024D7
:10458C007806002478060024800600248006002487
:10459C008806002488060024900600249006002437
:1045AC009806002498060024A0060024A0060024E7
:1045BC00A8060024A8060024B0060024B006002497
:1045CC00B8060024B8060024C0060024C006002447
:1045DC00C8060024C8060024D0060024D0060024F7
:1045EC00D8060024D8060024E0060024E0060024A7
:1045FC00E8060024E8060024F0060024F006002457
:10460C00F8060024F8060024000700240007002404
:10461C0008070024080700241007002410070024B2
:10462C001807002418070024200700242007002462
:10463C002807002428070024300700243007002412
:10464C0038070024380700244007002440070024C2
:10465C004807002448070024500700245007002472
:10466C005807002458070024600700246007002422
:10467C0068070024680700247007002470070024D2
:10468C007807002478070024800700248007002482
:10469C008807002488070024900700249007002432
:1046AC009807002498070024A0070024A0070024E2
:1046BC00A8070024A8070024B0070024B007002492
:1046CC00B8070024B8070024C0070024C007002442
:1046DC00C8070024C8070024D0070024D0070024F2
:1046EC00D8070024D8070024E0070024E0070024A2
:1046FC00E8070024E8070024F0070024F007002452
:10470C00F8070024F80700240008002400080024FF
:10471C0008080024080800241008002410080024AD
:10472C00180800241808002420080024200800245D
:10473C002808002428080024FFFFFFFF00000200C7
:10474C00010000000000000000000000000000005C
:10475C000004025800000000000100000010025884
:10476C0000000000000E000000040258D8080024CD
:10477C00E8080024F8080024152D00086903000837
:040000050800259931
:00000001FF
